{
  "contractName": "Assign",
  "abi": [
    {
      "inputs": [],
      "stateMutability": "nonpayable",
      "type": "constructor"
    },
    {
      "anonymous": false,
      "inputs": [
        {
          "indexed": true,
          "internalType": "address",
          "name": "_from",
          "type": "address"
        },
        {
          "indexed": false,
          "internalType": "int256",
          "name": "_price",
          "type": "int256"
        }
      ],
      "name": "PriceFeed",
      "type": "event"
    },
    {
      "inputs": [],
      "name": "getLatestPrice",
      "outputs": [
        {
          "internalType": "int256",
          "name": "",
          "type": "int256"
        }
      ],
      "stateMutability": "payable",
      "type": "function",
      "payable": true
    },
    {
      "inputs": [],
      "name": "getAvg",
      "outputs": [
        {
          "internalType": "int256",
          "name": "",
          "type": "int256"
        }
      ],
      "stateMutability": "view",
      "type": "function",
      "constant": true
    }
  ],
  "bytecode": "0x608060405234801561001057600080fd5b50739326bfa02add2366b30bacb125260af6410313316000806101000a81548173ffffffffffffffffffffffffffffffffffffffff021916908373ffffffffffffffffffffffffffffffffffffffff16021790555061026e806100746000396000f3fe6080604052600436106100295760003560e01c8063390b6a4c1461002e5780638e15f47314610059575b600080fd5b34801561003a57600080fd5b50610043610077565b6040518082815260200191505060405180910390f35b6100616100d9565b6040518082815260200191505060405180910390f35b60008060008090506000809050600092505b6001805490508310156100bf57600183815481106100a357fe5b9060005260206000200154820191508280600101935050610089565b60018054905082816100cd57fe5b05905080935050505090565b6000806000806000806000809054906101000a900473ffffffffffffffffffffffffffffffffffffffff1673ffffffffffffffffffffffffffffffffffffffff1663feaf968c6040518163ffffffff1660e01b815260040160a06040518083038186803b15801561014957600080fd5b505afa15801561015d573d6000803e3d6000fd5b505050506040513d60a081101561017357600080fd5b8101908080519060200190929190805190602001909291908051906020019092919080519060200190929190805190602001909291905050509450945094509450945060018490806001815401808255809150506001900390600052602060002001600090919091909150553373ffffffffffffffffffffffffffffffffffffffff167f5e523fddfb602556332494cd261400f0bad4831fde9d99428769554b76821834856040518082815260200191505060405180910390a283955050505050509056fea2646970667358221220c52a86afe17dd13fa10990d25d80bc34ac75202f45e23c416d4a2d50f05b62ab64736f6c63430006070033",
  "immutableReferences": {},
  "source": "// This example code is designed to quickly deploy an example contract using Remix.\n\npragma solidity ^0.6.7;\n\n//import \"https://github.com/smartcontractkit/chainlink/blob/master/evm-contracts/src/v0.6/interfaces/AggregatorV3Interface.sol\";\n//import \"https://github.com/smartcontractkit/chainlink/blob/5dbbc21f13fa00ee724c439273156834c45ab93e/evm-contracts/src/v0.6/interfaces/AggregatorV3Interface.sol\";\nimport \"@chainlink/contracts/src/v0.6/interfaces/AggregatorV3Interface.sol\";\n\n\ncontract Assign {\n\n    AggregatorV3Interface internal priceFeed;\n    int[] private arr; \n\n\n    /**\n     * Network: Kovan\n     * Aggregator: ETH/USD\n     * Address: 0x9326BFA02ADD2366b30bacB125260Af641031331\n     */\n    constructor() public {\n        priceFeed = AggregatorV3Interface(0x9326BFA02ADD2366b30bacB125260Af641031331);\n    }\n\nevent PriceFeed(address indexed _from,int _price);\n    /**\n     * Returns the latest price\n     */\n    function getLatestPrice() public payable returns (int) {\n        (\n            uint80 roundID, \n            int price,\n            uint startedAt,\n            uint timeStamp,\n            uint80 answeredInRound\n        ) = priceFeed.latestRoundData();\n          arr.push(price);// every method call current price will be pushed into an array\n      emit PriceFeed(msg.sender,price);\n        return price;\n    }\n    \n    /**\n     * function to get average price from array values\n     */\n    \n    function getAvg() public view returns(int){\n                 uint i;\n                 int sum= 0;\n                 int avg=0;\n                    for(i = 0; i < arr.length; i++)\n                         sum = sum + arr[i];\n                    \n                    avg=sum/int256(arr.length);\n                     return avg;\n            }\n    \n   \n}",
  "sourcePath": "/home/vinod/Desktop/vinod/ethereum/contracts/Assign.sol",
  "compiler": {
    "name": "solc",
    "version": "0.6.7+commit.b8d736ae.Emscripten.clang"
  },
  "schemaVersion": "3.3.4",
  "updatedAt": "2021-04-01T19:34:44.926Z",
  "networkType": "ethereum",
  "devdoc": {
    "methods": {}
  },
  "userdoc": {
    "methods": {
      "constructor": "Network: Kovan Aggregator: ETH/USD Address: 0x9326BFA02ADD2366b30bacB125260Af641031331",
      "getAvg()": {
        "notice": "function to get average price from array values"
      },
      "getLatestPrice()": {
        "notice": "Returns the latest price"
      }
    }
  }
}